:020000040000fa
:080000000002040000000000f2
:020000040000fa
:1000080090020000900200009002000090020000a0
:100018009002000090020000900200009002000090
:100028009002000090020000900200009002000080
:100038009002000090020000900200009002000070
:100048009002000090020000900200009002000060
:100058009002000090020000900200009002000050
:1000680090020000900200009002000020060000ac
:100078009002000090020000900200009002000030
:100088009002000090020000900200009002000020
:100098009002000090020000900200009002000010
:1000a8009002000090020000900200009002000000
:1000b80090020000900200009002000090020000f0
:1000c80090020000900200009002000090020000e0
:1000d80090020000900200009002000090020000d0
:1000e80090020000900200009002000090020000c0
:1000f80090020000900200009002000090020000b0
:10010800900200009002000090020000900200009f
:10011800900200009002000090020000900200008f
:10012800900200009002000090020000900200007f
:10013800900200009002000090020000900200006f
:10014800900200009002000090020000900200005f
:10015800900200009002000090020000900200004f
:10016800900200009002000090020000900200003f
:10017800900200009002000090020000900200002f
:10018800900200009002000090020000900200001f
:10019800900200009002000090020000900200000f
:1001a80090020000900200009002000090020000ff
:1001b80090020000900200009002000090020000ef
:1001c80090020000900200009002000090020000df
:1001d80090020000900200009002000090020000cf
:1001e80090020000900200009002000090020000bf
:0801f8009002000090020000db
:020000040000fa
:10020800900200009002000090020000900200009e
:10021800900200009002000090020000900200008e
:10022800900200009002000090020000900200007e
:10023800900200009002000090020000900200006e
:10024800900200009002000090020000900200005e
:10025800900200009002000090020000900200004e
:1002680090020000900200009002000020060000aa
:10027800900200009002000090020000900200002e
:10028800900200009002000090020000900200001e
:10029800900200009002000090020000900200000e
:1002a80090020000900200009002000090020000fe
:1002b80090020000900200009002000090020000ee
:1002c80090020000900200009002000090020000de
:1002d80090020000900200009002000090020000ce
:1002e80090020000900200009002000090020000be
:1002f80090020000900200009002000090020000ae
:10030800900200009002000090020000900200009d
:10031800900200009002000090020000900200008d
:10032800900200009002000090020000900200007d
:10033800900200009002000090020000900200006d
:10034800900200009002000090020000900200005d
:10035800900200009002000090020000900200004d
:10036800900200009002000090020000900200003d
:10037800900200009002000090020000900200002d
:10038800900200009002000090020000900200001d
:10039800900200009002000090020000900200000d
:1003a80090020000900200009002000090020000fd
:1003b80090020000900200009002000090020000ed
:1003c80090020000900200009002000090020000dd
:1003d80090020000900200009002000090020000cd
:1003e80090020000900200009002000090020000bd
:0803f8009002000090020000d9
:020000040000fa
:100400002f8120000e9f20000e01880000000000b8
:100410000c000700e064200001002000110007002c
:10042000000020000000e000020032000000020096
:100430000000000012060200000000000040da0088
:100440000000fe004440a900200120000000e00060
:100450000300320000002000a00188004440a800f2
:100460000000060091018800800078000000eb0089
:1004700015003700e280400032a0b4009101ba00bc
:10048000e280400032a0b4009102ba00e280400055
:1004900032a0b4000002eb00472bde00f507b200eb
:1004a000602ce10004003a000059eb008301e900f0
:1004b000fdff3e00040037006128e100010032002a
:1004c0000082eb00040007001101ba000200e00006
:1004d000e8ff3a00000006003159ba008301e90044
:1004e0000c0032002159ba008301e90008003200f3
:1004f0000400e00003003a00e280400032a0b400b3
:10050000f5ff370011d9ba008301e900faff3a007c
:100510008100e800e180400032a0b4000000060045
:080520000040da000000fe00bb
:020000040000fa
:1005280004000000010100000000000000010000bc
:1005380001000000710200008e0000000a000000a7
:0405480002000000ad
:020000040000fa
:10054c000000fa00cc42a8000080fa00000006006f
:10055c000000fa00cc42a9000080fa00000006005e
:10056c000a00fa002007980031079800420798000b
:10057c003e009000e10f500002003a00001584008c
:10058c0001003700f0148400100798000000eb0005
:10059c00000f7800430037002e0090000000ea00a6
:1005ac00ae009000010070004f00de00800078006b
:1005bc00e0802000b00007002e0090000000ea0050
:1005cc00ae009000010070004f00de00800078004b
:1005dc0000812000a80007007040800061292800dd
:1005ec0061407800614060000080fb0061006000a9
:1005fc004400dd0062168000f1fe2f0081006100d6
:10060c00008070006016880070408000a1292800ce
:10061c0061407800614060000080fb006100600078
:10062c004400dd0022168000f1fe2f0081006100e5
:10063c00008070002016880080408000612928000e
:10064c0061407800614060000080fb006100600048
:10065c004200dd0022168000b1ff2f0081006100f6
:10066c00008070002016880080408000a12928009e
:10067c0061407800614060000080fb006100600018
:10068c004300dd002216800071ff2f008100610005
:10069c0000807000201688001e0090009a00070051
:1006ac001e0fe8004e0090009e007800808f5000d6
:1006bc00b9ff39000080fa00000006000a00fa00b9
:1006cc002007980031079800420798003e009000e0
:1006dc00e10f500002003a000015840001003700c1
:1006ec00f0148400100798000000eb00000f780055
:1006fc00430037002e0090000000ea00ae0090008e
:10070c00010070004f00de0080007800e0802000c7
:10071c005900070010002000ae009000e08f500040
:10072c00010032000000eb00800078000081200006
:10073c00510007007040800061292800614078005a
:10074c00614060000080fb00610060004400dd003f
:10075c0062168000f1fe2f008100610000807000a5
:10076c006016880070408000a12928006140780044
:10077c00614060000080fb00610060004400dd000f
:10078c0022168000f1fe2f008100610000807000b5
:10079c002016880080408000612928006140780084
:1007ac00614060000080fb00610060004200dd00e1
:1007bc0022168000b1ff2f008100610000807000c4
:1007cc002016880080408000a12928006140780014
:1007dc00614060000080fb00610060004300dd00b0
:1007ec002216800071ff2f008100610000807000d4
:1007fc00201688001e009000430007001e0fe80022
:10080c004e0090009e007800808f5000b9ff390098
:10081c000080fa00000006000400fa00100798009f
:10082c00803e2000000f780045ff07001e01780075
:10083c009e0090000000eb0049ff07001e017800ad
:10084c009e0090001000200045ff07001e0178005c
:10085c009e0090000000eb0098ff07001e0178003e
:10086c009e0090001000200094ff070038ff070046
:10087c000080fa00000006000400fa00000f780067
:10088c00110798001e00780010007800e00f50004f
:10089c0008003a001e009000e10f500005003a00dd
:1008ac00a01484008000e9001e0078000108780084
:1008bc00130037001e007800900078001e00900096
:1008cc00e00f500002003a00100020000100370039
:1008dc000080eb00808040001e007800010878004a
:1008ec001e00780090007800a0148400808f5000c7
:1008fc00030039001e0078008000eb00010878002e
:10090c000080fa00000006000200fa00000f7800d8
:10091c000000eb0030088800000000003008800068
:10092c009e0f5000fdff39000080fa000000060009
:10093c000000fa0010c0b30008e8b7000080fa000d
:10094c00000006000000fa000040eb0008e8b700c9
:10095c0062a0a90062e0a9000080fa000000060075
:10096c000c00fa000000eb002a0007000100200038
:10097c00008fbe00100020002600070001002000a0
:10098c0020079800310798002e009000be009000c0
:10099c003e011000ae8118000200be004007980016
:1009ac0051079800201584006101b9004e00900099
:1009bc00de009000800f5100818f590004003d0033
:1009cc00c402a800c422a9000000eb000f003700ed
:1009dc00201584000000ea006101b9004e0090006f
:1009ec00de009000800f5100818f5900040034000c
:1009fc00c402a900c422a800100020000300370084
:100a0c00c402a800c422a800200020000080fa0024
:100a1c00000006000200fa00000f78000040eb0016
:100a2c000ae8b7001e007800e00f50000300320007
:100a3c00e10f50000d0032001900370062a0a80031
:100a4c0062e0a900c4c2a8000000eb000008880006
:100a5c00000000000108800010158400808f5000f9
:100a6c00fcff3900c4c2a9000c00370062a0a90029
:100a7c0062e0a800cd02a8000000eb00000888008e
:100a8c00000000000108800010158400808f5000c9
:100a9c00fcff3900cd02a90000000000000000009e
:100aac000ac8bf00e04f5000fdff32000000eb0011
:100abc00000888000000000000088000e90f5000ca
:100acc00fdff3600604080000080fa000000060048
:100adc000000fa00a2ff07000080fa0000000600e8
:100aec000000fa000080eb0060198800c882a900a1
:100afc00c082a900c042a900c062a900c842a900d6
:100b0c00c0c2a900c922a80072a0a800c902a900ed
:100b1c00c8e2a80072e0a800c802a8002c43a900f3
:100b2c00c822a800c002a900c022a9000080fa00b7
:100b3c00000006000000fa0040a7a900213a80003e
:100b4c00f08f2f0000806000203a88002108800080
:100b5c000003200000807000200888000421a900f8
:100b6c0004c1a9000441a900c00920001008880094
:100b7c009460a9008460a900210580000000270072
:100b8c00008070002005880005e1a80040422f007d
:100b9c000100200000408800114088001061a9006d
:100bac00810880000003200000807000800888000d
:100bbc001021a90010c1a90040422f006008880034
:100bcc0094e0a90084e0a900310580000000270012
:100bdc00008070003005880011e1a80040422f0011
:100bec000100200020408800314088000080fa007d
:100bfc00000006000000fa009660a8006105800065
:100c0c000000270000807000600588008660a90045
:100c1c000080fa00000006000000fa00b0ff070098
:100c2c00c4ff0700f3ff070041ff0700a8ff070000
:100c3c00feff3700801f78000000fa008660a900d4
:100c4c0008c8bf00e04f50000e00320009c8bf00ba
:100c5c00e04f500005003a0010c0b30009e8b7009f
:100c6c000000eb0000088800060037000040eb0095
:100c7c0009e8b700000880006040880010c0b3008d
:100c8c000ae8b7000080fa004f0078000040060028
:020000040000fa
:100c9c0000080000080000000200000024f400001e
:100cac000024f400000000000e0800000400000006
:100cbc000200000000000000000000000808000016
:100ccc000600000002000000000000000000000010
:040cdc000000000014
:020000040000fa
:0200000401f009
:04000c00f9ff0000f8
:020000040000fa
:0200000401f009
:04001000fbff0000f2
:020000040000fa
:0200000401f009
:040014007fff00006a
:00000001FF
