:020000040000fa
:080000000002040000000000f2
:020000040000fa
:1000080090020000900200009002000090020000a0
:100018009002000090020000900200009002000090
:100028009002000090020000900200009002000080
:100038009002000090020000900200009002000070
:100048009002000090020000900200009002000060
:100058009002000090020000900200009002000050
:10006800900200009002000090020000dc060000f0
:100078009002000090020000900200009002000030
:100088009002000090020000900200009002000020
:100098009002000090020000900200009002000010
:1000a8009002000090020000900200009002000000
:1000b80090020000900200009002000090020000f0
:1000c80090020000900200009002000090020000e0
:1000d80090020000900200009002000090020000d0
:1000e80090020000900200009002000090020000c0
:1000f80090020000900200009002000090020000b0
:10010800900200009002000090020000900200009f
:10011800900200009002000090020000900200008f
:10012800900200009002000090020000900200007f
:10013800900200009002000090020000900200006f
:10014800900200009002000090020000900200005f
:10015800900200009002000090020000900200004f
:10016800900200009002000090020000900200003f
:10017800900200009002000090020000900200002f
:10018800900200009002000090020000900200001f
:10019800900200009002000090020000900200000f
:1001a80090020000900200009002000090020000ff
:1001b80090020000900200009002000090020000ef
:1001c80090020000900200009002000090020000df
:1001d80090020000900200009002000090020000cf
:1001e80090020000900200009002000090020000bf
:0801f8009002000090020000db
:020000040000fa
:10020800900200009002000090020000900200009e
:10021800900200009002000090020000900200008e
:10022800900200009002000090020000900200007e
:10023800900200009002000090020000900200006e
:10024800900200009002000090020000900200005e
:10025800900200009002000090020000900200004e
:10026800900200009002000090020000dc060000ee
:10027800900200009002000090020000900200002e
:10028800900200009002000090020000900200001e
:10029800900200009002000090020000900200000e
:1002a80090020000900200009002000090020000fe
:1002b80090020000900200009002000090020000ee
:1002c80090020000900200009002000090020000de
:1002d80090020000900200009002000090020000ce
:1002e80090020000900200009002000090020000be
:1002f80090020000900200009002000090020000ae
:10030800900200009002000090020000900200009d
:10031800900200009002000090020000900200008d
:10032800900200009002000090020000900200007d
:10033800900200009002000090020000900200006d
:10034800900200009002000090020000900200005d
:10035800900200009002000090020000900200004d
:10036800900200009002000090020000900200003d
:10037800900200009002000090020000900200002d
:10038800900200009002000090020000900200001d
:10039800900200009002000090020000900200000d
:1003a80090020000900200009002000090020000fd
:1003b80090020000900200009002000090020000ed
:1003c80090020000900200009002000090020000dd
:1003d80090020000900200009002000090020000cd
:1003e80090020000900200009002000090020000bd
:0803f8009002000090020000d9
:020000040000fa
:100400004f8120000e9f20000e0188000000000098
:100410000c000700e0ac20000100200011000700e4
:10042000000020000000e000020032000000020096
:10043000000000005c040200000000000040da0040
:100440000000fe004440a900600120000000e00020
:100450000300320000002000a00188004440a800f2
:100460000000060091018800800078000000eb0089
:1004700015003700e280400032a0b4009101ba00bc
:10048000e280400032a0b4009102ba00e280400055
:1004900032a0b4000002eb00472bde00f507b200eb
:1004a000602ce10004003a000059eb008301e900f0
:1004b000fdff3e00040037006128e100010032002a
:1004c0000082eb00040007001101ba000200e00006
:1004d000e8ff3a00000006003159ba008301e90044
:1004e0000c0032002159ba008301e90008003200f3
:1004f0000400e00003003a00e280400032a0b400b3
:10050000f5ff370011d9ba008301e900faff3a007c
:100510008100e800e180400032a0b4000000060045
:100520000040da000000fe000001be0021000700cc
:100530000470a70003f0a1006509b10016003200a5
:100540000d0035006828e10006003500f0ff2f009f
:10055000f1ff27000300e00013003b00010028002a
:100560000000050000004000818048008502e9008d
:10057000fcff3a0008003700f88f420002003c0000
:100580008000eb00000005008100d1000080d30056
:100590008502e800fcff3a000300e00002003b0097
:1005a00060001000e0801800000006006011b80034
:1005b00049003700c70ade00f107b200f50fb200ac
:1005c00008003200e1cf4200020032000170a000ba
:1005d00024000500810f70000100320004080500ae
:1005e00044000500810f700002003a00140005006d
:1005f0008502e9000000400081c04800fcff3b008c
:100600000170a00024000500889fbe008a9fbe00e4
:100610008c1f7800850007008c00330003866c0077
:100620006450e100240032006420e1002700320021
:100630006150e100220032006120e100210032001f
:100640008b854200eb07b1000134b800003ab800d6
:100650000804420089844a00013ab8000030b8001a
:100660008880400009014a00040033000000400077
:1006700081804800020149008b05e900c909dd00bd
:10068000830170000100320013002000c814de0056
:100690004814dd004709de001200b200c808de0081
:1006a000088470003b00070001f0a1000cf0a700d7
:1006b00001f0a0006e0037006120e1007000320000
:1006c0000801be000200be00f7ff37006150e100e4
:1006d000fcff3a006a003700889fbe008a9fbe0078
:1006e0000082700004027100048271002600320052
:1006f0000004be000200be006011b8006b092000bb
:10070000950220000182cf000a0039000541b100a6
:100710000082cf00070039000541b1000982cf00f7
:10072000040039000541b1000882cf000100390002
:100730000541b10005425200120032000a003b00a0
:1007400082817100610164008100d1000080d300ca
:100750008984d3000884d3008b05e8000442e800b4
:10076000f7ff3a00070037000804440089844c0072
:1007700000004800818048008b05e9000442e90040
:10078000f9ff3a00030007004f05be004f04be000a
:100790000000060081002000618055000b003d0034
:1007a0000b00200061fe2f000100e1001d0034005d
:1007b00082817100610164008904d1000884d30042
:1007c0000000e800faff3a007100200061006400b8
:1007d0000300700002006000090032006104440060
:1007e000e0844c000988a500050032008b05e80074
:1007f0006808e10002003a008904d1000884d300af
:10080000f20f20000258e10005003d00c75ddd0049
:10081000f907b20089807500080078000000060022
:100820000bf827008b007800000005000004be00d4
:1008300060ff07000003be000405be000200be000a
:100840005cff0700844f7500000006000200be0038
:100850006450e100050036006420e100020036002b
:100860000968a30001003a000800be000160a00072
:100870004f0678004f05be004f04be000000060082
:0c088000f0ff2f00f1ff2700f9ff370008
:020000040000fa
:10088c000400000001010000000000000001000055
:10089c0001000000e80300008e00000032000000a0
:0c08ac0000000000e2040000000000005a
:020000040000fa
:1008b8004e00fa0040a7a900b2020700d3020700c1
:1008c800c9020700010207000603070060c0a8006c
:1008d8000000eb00100798000e007800e001b0005f
:1008e800050009000018eb000e007800a002b00017
:1008f800050009000018eb000e0078006003b00046
:10090800050009000018eb000e0078002004b00074
:10091800050009000018eb000000eb002007980014
:100928000000eb00300798000000eb00400798003b
:100938000000eb00500798000000eb0060079800eb
:1009480001003700000000006e0090000100200048
:100958003200200003002000820f5000838f5800cf
:10096800f8ff3e0000600100030037001300370065
:1009780052003700750037005701070004003700a0
:10098800120020008000eb000000eb005a01070075
:1009980010c8bf00e04f5000f9ff32000000eb0024
:1009a800000f780010002000600798000000eb009e
:1009b80010079800c462a900fc003700c462a800b0
:1009c8001e009000e40f500039003c0006020700aa
:1009d800300f9800c462a9003e089000e00f500054
:1009e80009003a003e009000000040000000470067
:1009f8007e0040001e0878003e0090000000e800dd
:100a080030079800170037003e089000e10f5000ab
:100a180009003a004e009000000040000000470026
:100a2800a002b0001e0878004e0090000000e80008
:100a3800400798000b0037003e089000e20f500076
:100a480008003a005e0090000000400000004700e7
:100a58006003b0001e0878005e0090000000e80007
:100a6800500798001e0090000000e800100798004a
:100a780004003700120020008000eb000000eb00ab
:100a88001d01070010c8bf00e04f5000f9ff3200f9
:100a9800f0000700005f98000e589000e04f5000eb
:100aa80005003a000000eb006007980002003700dc
:100ab8002000200060079800bc0037000040eb00d1
:100ac80011e8b7001b003700a2020700500f98007a
:100ad800de089000f00f2000808f500015003200d3
:100ae8005e089000ef0f500003003a000000eb0092
:100af800604088000d003700de089000000f2000dd
:100b0800808f500003003a001000200060408800e9
:100b180006003700de089000c0032000808f5000d8
:100b280002003a00200020006040880010c0b30096
:100b380011e8b70011c8bf00e04f5000e2ff3200d3
:100b4800300020006007980098003700604080005f
:100b5800e00f50001b003a003e009000e00f5000ec
:100b6800180032003e009000200798000000eb00bb
:100b7800700798000000eb00700798000c00370021
:100b88007e0090000000400000004700f008900040
:100b98007e00900000004000000047002004b000e4
:100ba800010878007e0090000000e80070079800b7
:100bb800fe0090003e009000808f5000f0ff35004e
:100bc8003f00370060408000e10f50001b003a00f2
:100bd8004e009000e00f5000180032004e009000c8
:100be800200798000000eb00000f98000000eb00c1
:100bf800000f98000c0037000e089000000040001d
:100c080000004700d01090000e089000000040003f
:100c1800000047002004b000010878000e0890008a
:100c28000000e800000f98008e0890004e00900029
:100c3800808f5000f0ff35002100370060408000b1
:100c4800e20f50001b003a005e009000e00f5000d9
:100c5800180032005e009000200798000000eb00aa
:100c6800100f98000000eb00100f98000c003700e0
:100c78001e0890000000400000004700b0189000d7
:100c88001e08900000004000000047002004b0004b
:100c9800010878001e0890000000e800100f980076
:100ca8009e0890005e009000808f5000f0ff350095
:100cb800030037000000eb00600798003b00370096
:100cc800c462a8000000eb00200f98000000eb00b1
:100cd800200f98002d0037002e08900000004000db
:100ce80000004700102090001e005000600f980080
:100cf8006e089000e00f50000d003d000000eb0072
:100d08005040880004003700120020008000eb00eb
:100d18001000200078000700514080006e08900005
:100d2800808f5000f8ff3a005f000700140037007a
:100d38006e089000e00f50000d0035000000eb0039
:100d48005040880004003700120020008000eb00ab
:100d58000000eb0068000700514080006e0890001a
:100d6800808f5000f8ff3a004f000700040037005a
:100d78006e089000e00f500001003a004a0007009a
:100d88002e0890000000e800200f9800ae089000a0
:100d98002e009000808f5000cfff3500c462a9005c
:100da800200020006007980000000000e6fe3700e1
:100db8003600f800809fbe00829fbe00849fbe0060
:100dc800869fbe000000fa008660a90050168000c9
:100dd800e400600010c0b300e08f50000100320052
:100de8000040eb00070007000080fa004f03be0038
:100df8004f02be004f01be004f00be003600f90092
:100e0800004006000200fa00004f78000ec8bf003c
:100e1800e04f500006003a001e407800e14f5000b5
:100e280003003a0010c0b30010e8b7000200370012
:100e38000040eb0010e8b7001e4078000ee8b7004d
:100e4800504080000000e800504088000080fa0010
:100e5800000006000000fa0040408000e30f500048
:100e680004003c00404080000000e800404088004a
:100e78000a00370040408000e40f500003003a00a9
:100e88000000eb0040408800040037000000eb0041
:100e9800404088000040eb000100370010c0b3005c
:100ea8000080fa00000006000200fa00cc02a80048
:100eb800c442a900de000700000f78001e00780079
:100ec800e10f500001003a00fe000700cc02a90023
:100ed8000080fa00000006000000fa00c462a800c2
:100ee8000080fa00000006000000fa00c462a900b1
:100ef8000080fa00000006000a00fa0020079800a7
:100f080031079800420798003e009000e10f50001a
:100f180002003a00902284000100370080228400f9
:100f2800100798000000eb00000f7800230037003e
:100f38002e0090000000ea00ae0090000100700052
:100f48004f00de008000780020812000310007007b
:100f58009040800081442800614078006140600032
:100f68000080fb00610060004400dd002216800064
:100f7800f1fe2f00810061000080700020168800bb
:100f880090408000c14428006140780061406000c2
:100f98000080fb00610060004400dd0062168000f4
:100fa800f1fe2f008100610000807000601688004b
:100fb8001e0090003b0007001e0fe8004e00900046
:100fc8009e007800808f5000d9ff39000080fa0019
:100fd800000006000400fa0010079800803e200078
:100fe800000f7800bcff07001e0178009e009000eb
:100ff8000000eb00c0ff07001e0178009e00900073
:1010080010002000bcff0700b7ff07000080fa00af
:10101800000006000400fa00000f7800110798008d
:101028001e00780010007800e00f500008003a0019
:101038001e009000e10f500005003a0030228400a5
:101048008000e9001e0078000108780013003700ce
:101058001e007800900078001e009000e00f5000fd
:1010680002003a0010002000010037000080eb0069
:10107800808040001e007800010878001e0078007b
:101088009000780030228400808f500003003900df
:101098001e0078008000eb00010878000080fa004c
:1010a800000006000200fa00000f78000000eb00c4
:1010b8000008880000000000000880009e0f500013
:1010c800fdff39000080fa00000006000000fa0069
:1010d8002c63a90021a3a90001198000f0cf2f00db
:1010e800008060000019880001198000000e2000af
:1010f80000807000001988002043a9002023a9005f
:1011080011198000f0ff2100808060000000240099
:1011180000807000101988002343a900111980006d
:1011280030fc2f00808060000002200000807000ea
:10113800101988002223a9002203a9002383a900eb
:1011480025e3a90021198000f00f2e00808060009f
:10115800007020000080700020198800211980008c
:1011680000fc2f0000806000f000b3002019880008
:1011780028e3a9004119800000ff2f0000806000cb
:101188003000b3004019880029e3a9004119800004
:10119800f00f2f0080806000002020000080700089
:1011a800401988000000eb008019880095a0a9006c
:1011b80085a0a90021e3a8000080fa00000006002d
:1011c8000000fa002023a800000000000019800099
:1011d80062006000e00f5000fcff3a000018800039
:1011e8000080fa00000006000200fa00f4ff070081
:1011f800000f7800901420009e007800808f500027
:1012080002003c000000eb0007003700d02420005b
:101218009e007800808f500002003c0010002000e3
:1012280001003700200020000080fa0000000600be
:101238000400fa006000b800008fbe0018003700f4
:10124800c0228400d1228400d6fc07002204260094
:1012580053f62300eafc0700b1fc07000000780001
:101268003d000700c442a800c0228400d1228400a7
:10127800ccfc070042df2f0043dd2300e0fc070021
:10128800a7fc07000000780033000700c442a9004b
:1012980010002000010020001e0f40005e9748004b
:1012a800a0228400b12284001e01be00800f5100dc
:1012b800818f5900e2ff3900100020000080fa00f9
:1012c800000006000400fa006000b800008fbe00ad
:1012d80018003700c0228400d1228400b1fc070026
:1012e800f2512800b3f62300c5fc07008cfc070068
:1012f8000000780018000700c442a800c02284003b
:10130800d1228400a7fc0700a2702d0033da230045
:10131800bbfc070082fc0700000078000e000700f5
:10132800c442a90010002000010020001e0f400048
:101338005e974800a0228400b12284001e01be00ee
:10134800800f5100818f5900e2ff39001000200002
:101358000080fa00000006000200fa00000f780082
:101368000000eb0000088800000000009e007800e4
:1013780000088000808f5000fcff3e000080fa00cb
:10138800000006000000fa000080eb0060198800e9
:101398002c63a900c002a900c022a900c802a900a4
:1013a800c822a800c842a800c042a900c062a9007b
:1013b800c882a900c082a900c8e2a900c902a90080
:1013c800c922a900c0c2a90000000000c9c2a80023
:1013d800c9a2a900c982a800c9e2a80000000000ab
:1013e8000080fa00000006000000fa009660a800dd
:1013f80061058000000027000080700060058800fb
:101408008660a9000080fa00000006000000fa00cb
:10141800213a8000f08f2f0000806000203a880079
:101428002108800000032000008070002008880048
:101438000421a90004c1a9000441a9000080eb000f
:10144800100888009460a9008460a9002105800024
:1014580000002700008070002005880005e1a80032
:1014680040422f0001002000004088001140880001
:101478001061a9008108800000032000008070002e
:10148800800888001021a90010c1a90040422f003f
:101498006008880094e0a90084e0a9003105800074
:1014a80000002700008070003005880011e1a800c6
:1014b80040422f0001002000204088003140880071
:1014c8000080fa00000006000000fa00c9e2a80047
:1014d800c9c2a800c9a2a900c982a8000080fa0050
:1014e800000006000000fa0041e2a9000000eb003d
:1014f800401288008540a9009540a9004105800058
:101508000070200000807000400588004382a90018
:101518004362a9004342a9004322a9004302a9004b
:1015280042e2a80042c2a900e7ff070042a2a900c0
:1015380045e2a90045c2a80045a2a9004422a90085
:101548004402a90040c2a90041e2a8000080fa00b4
:10155800000006000200fa000000000000128000ef
:1015680062006000e00f5000fcff3a00000000003d
:101578000012800061006000e00f5000fcff3200a4
:1015880040128000000f78001e0078000080fa00ea
:041598000000060049
:020000040000fa
:10159c0000080000080000000200000024f4000015
:1015ac000024f400000000001008000002000000fd
:1015bc000200000000000000080800000800000005
:1015cc0000000000120800000200000002000000f1
:0815dc00000000000000000007
:020000040000fa
:0200000401f009
:04000c00f9ff0000f8
:020000040000fa
:0200000401f009
:04001000fbff0000f2
:020000040000fa
:0200000401f009
:040014007fff00006a
:00000001FF
